:020000040000FA
:060000000A128A110C280F
:10000800FE00030EF4000A08F5000A168A15782F78
:100018000A128A110F288317D830FD001C30FE0001
:100028008D30FF00D23084000A168A15EB240A129C
:100038008A118313F030FD001C30FE008930FF0068
:10004800EC3084000A168A15EB240A128A110A1267
:100058008A1500200A128A11F9000A128A1501204D
:100068000A128A11FA000A128A1502200A128A1143
:10007800FB00831790308400D2300A168A15932427
:100088000A128A118313E2308400EC300A168A15AA
:1000980093240A128A11F601F701F80183010A1262
:1000A8008A1156280A168A15AD240A128A114E306A
:1000B8000A168A11EE200A128A110A168A15C7240E
:1000C8000A128A110A168A159B240A128A118316A3
:1000D8000313071186108312031386100715303097
:1000E80090008F018E010B309700003083160317A4
:1000F800930000309200003091000030900083128D
:1001080003130C11831603130C15C0308B00313008
:100118008312031390000A168A15C7240A128A113B
:1001280083120313A601A60A01300A168A1523268C
:100138000A128A11333083120313A6008030A700F5
:100148000A168A1586260A128A1183120313A60133
:10015800A60A02300A168A1523260A128A11423084
:1001680083120313A6008030A7000A168A15862674
:100178000A128A1183120313861433308316031765
:10018800DA00BB30D900DF30D800D80BC928D90B2A
:10019800C928DA0BC9288312031386100A168A1590
:1001A800C7240A128A1183120313A601A60A013072
:1001B8000A168A1523260A128A115030831203134D
:1001C800A6008030A7000A168A1586260A128A1108
:1001D8001329790883160313EC007A08ED00003020
:1001E800ED1BFF30EE00EF007908053EF9007A08B4
:1001F8000318013E003EFA001A3083160317D9008F
:10020800F730D800D80B0629D90B06290B2901305D
:1002180083160313E2070318E30A0030E307831683
:1002280003136308803AFF0080307F02031D1E29F4
:1002380097306202031C21292229ED2879088316A8
:100248000313EC007A08ED000030ED1BFF30EE00E0
:10025800EF00333083160317DA00BB30D900DF30E4
:10026800D800D80B3529D90B3529DA0B352983164F
:100278000313E201E301F901FA010030EF00003055
:10028800EE000030ED008230EC000A168A15C72413
:100298000A128A1183120313A601A60A01300A164C
:1002A8008A1523260A128A116B3083120313A600BB
:1002B8008030A7000A168A1586260A128A11153078
:1002C80083160317DA004B30D900BD30D800D80B9D
:1002D8006B29D90B6B29DA0B6B2972290A168A1537
:1002E800C7240A128A110A168A15AD250A128A111C
:1002F80083120313260883160313E50083120313DE
:10030800250883160313E400942B0A128A156A251C
:100318000A128A11831603135908F7005808F600C1
:100328000A168A15AD250A128A11831203132608A4
:1003380083160313E500831203132508831603139A
:10034800E4007708803AFF0080307F02031DAE2961
:100358004B307602031CB129B229A72A7708803AC4
:10036800FF0080307F02031DBB298330760203180B
:10037800BE29BF29A72A453083160313C8001430A5
:10038800C7007030C6000030C5004430C4003230A9
:10039800C3000030C2000030C1004330C00002304A
:1003A800BF000030BE000030BD004230BC009630B7
:1003B800BB000030BA000030B9007608831203137E
:1003C800A5007708A6000030A61BFF30A700A800EC
:1003D80001300A168A112B220A128A11831203137A
:1003E800280883160313B8008312031327088316FB
:1003F8000313B70083120313260883160313B600EA
:1004080083120313250883160313B5000A168A11ED
:10041800CD230A128A11831603133808D00037082F
:10042800CF003608CE003508CD000A128A15032001
:100438000A128A11831603134E0883160317A7009E
:10044800831603134D0883160317A600423083163C
:100458000313C800C830C7000030C6000030C5000C
:100468000030C4000030C3000030C2000030C100BA
:100478004330C0000230BF000030BE000030BD0075
:100488004230BC009630BB000030BA000030B900E2
:10049800760883120313A5007708A6000030A61B70
:1004A800FF30A700A80001300A168A112B220A1271
:1004B8008A1183120313280883160313B8008312C2
:1004C8000313270883160313B700831203132608A0
:1004D80083160313B6008312031325088316031328
:1004E800B5000A168A11CD230A128A11831603133E
:1004F8003808D0003708CF003608CE003508CD00C0
:100508000A128A1503200A128A11831603134E0849
:1005180083160317A500831603134D0883160317C4
:10052800A400260883160313EC0083160317270874
:1005380083160313ED000030ED1BFF30EE00EF00D3
:100548008312031386107708803AFF0080307F02F9
:10055800031DB02A83307602031CB32AB42AC72AA3
:10056800831203138610003083160313EF00003044
:10057800EE000930ED004730EC00643083160317B5
:10058800A4000030A5007708803AFF0080307F0281
:10059800031DD02A4B3076020318D32AD42AE52A21
:1005A800831203138610003083160313EF00003004
:1005B800EE000030ED008230EC0083160317A40132
:1005C800A5018C3083160317D8005808831203132B
:1005D800AE007708B0007608AF00BA300A168A1164
:1005E80080260A128A11923083160317D8005808F9
:1005F80083120313AE00831603172508831203130F
:10060800B00083160317240883120313AF00AA301F
:100618000A168A1180260A128A1183120313A60168
:10062800A60A01300A168A1523260A128A1177307B
:1006380083120313A6008030A7000A168A1586269F
:100648000A128A110B3083160317D8005808831230
:100658000313A60001300A168A1523260A128A11E6
:10066800BA3083120313A6000130A7000A168A15B0
:1006780086260A128A1183120313A601A60A0230DB
:100688000A168A1523260A128A1182308312031346
:10069800A6008030A7000A168A1586260A128A1133
:1006A8000A3083160317D800580883120313A600CC
:1006B80002300A168A1523260A128A11AA308312D2
:1006C8000313A6000130A7000A168A1586260A1207
:1006D8008A110E3083160317D800580883120313A3
:1006E800A60002300A168A1523260A128A119630A5
:1006F80083120313A6008030A7000A168A158626DF
:100708000A128A11033083160317DA008A30D900D7
:100718005530D800D80B8E2BD90B8E2BDA0B8E2B9D
:10072800831603136508803AFF0080307F02031D9B
:100738009F2B14306402031CA22BA32B472C831677
:1007480003136508803AFF0082307F02031DAE2B39
:10075800BD306402031CB12BB22B8929472C0A1621
:100768008A15AD250A128A118312031326088316E7
:100778000313E50083120313250883160313E4000B
:10078800831203138614EE2B790883160313EC00E7
:100798007A08ED000030ED1BFF30EE00EF0079081D
:1007A800053EF9007A080318013E003EFA004E3073
:1007B80083160317D900EA30D800D80BE12BD90BE0
:1007C800E12B0000013083160313E2070318E30A44
:1007D8000030E307831603136308803AFF00813073
:1007E8007F02031DF92BC2306202031CFC2BFD2B78
:1007F800C82B790883160313EC007A08ED00003043
:10080800ED1BFF30EE00EF000A168A15C7240A1206
:100818008A1183120313A601A60A01300A168A1543
:1008280023260A128A115E3083120313A600803031
:10083800A7000A168A1586260A128A11831203133C
:10084800A601A60A02300A168A1523260A128A1158
:100858005E3083120313A6008030A7000A168A159B
:1008680086260A128A111A3083160317D900F73020
:10087800D800D80B3D2CD90B3D2C422C0A168A15D2
:10088800C7240A128A11831603136508803AFF00E9
:1008980083307F02031D522C203064020318552C2C
:1008A800562CB32B77290A128A110C2883120313AA
:1008B80052088039D7005708DC005208D70057077C
:1008C800D8005808E200D11F6A2C6B2C6C2C6214DB
:1008D80062080319702C712C802C620A031D752C78
:1008E800762C7E2C0030D2000030D1000030D000B1
:1008F8000030CF00D117882C0030D2000030D10052
:100908000030D0000030CF0056088039D700570893
:10091800DC065608D7005707D8005808DD00D51F51
:10092800962C972C982C5D145D0803199C2C9D2CF3
:10093800AC2C5D0A031DA12CA22CAA2C0030D600D9
:100948000030D5000030D4000030D300D517B42CC7
:100958000030D6000030D5000030D4000030D3007D
:100968005D080319B82CB92CBE2C6208031DBD2CD8
:10097800BE2CC72C0030D2000030D1000030D0008F
:100988000030CF00BA2F4F08D7005708A0005508ED
:100998000A168A15FA250A128A11831203132108E6
:1009A800E8002008E7006708D700D801D901DA0174
:1009B8005A08E1005908E0005808DF005708DE002F
:1009C8006808D700D801D901DA015A08E6005908A1
:1009D800E5005808E4005708E3005008D700570816
:1009E800A00054080A168A15FA250A128A118312D9
:1009F80003132108E8002008E7006708D700D8019A
:100A0800D901DA015708DE07580803110318013E17
:100A180003190F2DDF07590803110318013E0319A5
:100A2800162DE0075A0803110318013E03191D2D5E
:100A3800E1076808D700D801D901DA015708E307A8
:100A4800580803110318013E03192B2DE407590810
:100A580003110318013E0319322DE5075A08031143
:100A68000318013E0319392DE6075108D700570826
:100A7800A00053080A168A15FA250A128A11831249
:100A880003132108E8002008E7006708D700D80109
:100A9800D901DA015708DE07580803110318013E87
:100AA8000319572DDF07590803110318013E0319CD
:100AB8005E2DE0075A0803110318013E0319652D3E
:100AC800E1076808D700D801D901DA015708E30718
:100AD800580803110318013E0319732DE407590838
:100AE80003110318013E03197A2DE5075A0803116B
:100AF8000318013E0319812DE6070830D7000310BB
:100B0800DE0DDF0DE00DE10DD70B832D5008D7006A
:100B18005708A00053080A168A15FA250A128A11DE
:100B2800831203132108E8002008E7006708D700AC
:100B38006808D800D901DA015708DE0758080311F8
:100B48000318013E0319A92DDF07590803110318DB
:100B5800013E0319B02DE0075A0803110318013E9E
:100B68000319B72DE1074F08D7005708A00054080C
:100B78000A168A15FA250A128A1183120313210804
:100B8800E8002008E7006708D7006808D800D901FE
:100B9800DA015708DE07580803110318013E031944
:100BA800D62DDF07590803110318013E0319DD2D5F
:100BB800E0075A0803110318013E0319E42DE10761
:100BC8000830D7000310DE0DDF0DE00DE10DD70B67
:100BD800E62D4F08D7005708A00053080A168A15B3
:100BE800FA250A128A11831203132108E800200843
:100BF800E7006708D7006808D800D901DA01570864
:100C0800DE07580803110318013E03190C2EDF07ED
:100C1800590803110318013E0319132EE0075A0857
:100C280003110318013E03191A2EE1075008D700D3
:100C38005708A00055080A168A15FA250A128A11BB
:100C4800831203132108E8002008E7006708D7008B
:100C58006808D800D901DA015708E30758080311D2
:100C68000318013E0319392EE40759080311031824
:100C7800013E0319402EE5075A0803110318013EE7
:100C88000319472EE6075108D7005708A000540853
:100C98000A168A15FA250A128A11831203132108E3
:100CA800E8002008E7006708D7006808D800D901DD
:100CB800DA015708E307580803110318013E03191E
:100CC800662EE407590803110318013E03196D2E17
:100CD800E5075A0803110318013E0319742EE607A5
:100CE8005108D7005708A00055080A168A15FA2592
:100CF8000A128A11831203132108E8002008E7006A
:100D08006708D7006808D800D901DA01083003104D
:100D1800D70DD80DD90DDA0DFF3E031D8B2E5708C0
:100D2800E307580803110318013E03199C2EE40732
:100D3800590803110318013E0319A32EE5075A08A1
:100D480003110318013E0319AA2EE6075E08D7000F
:100D58005F08D8006008D9006108DA00183003106D
:100D6800DA0CD90CD80CD70CFF3E031DB32E57084C
:100D7800E307580803110318013E0319C42EE407BA
:100D8800590803110318013E0319CB2EE5075A0829
:100D980003110318013E0319D22EE6070830D700C5
:100DA8000310DE0DDF0DE00DE10DD70BD42E620828
:100DB8005D07D700D801D80D5708823EE7005808CC
:100DC8000318013EFF3EE800062F0130D70003104C
:100DD800E30DE40DE50DE60DD70BEB2EE11FF52E27
:100DE800F62EF72E63140130D7000310DE0DDF0D49
:100DF800E00DE10DD70BF92EFF30E7070318E80ADD
:100E0800FF30E807E51F092F0A2FE92EDD01E11F52
:100E18000E2F0F2F2B2FFF305E05D700FF305F05F9
:100E2800D800FF306005D9007F306105DA005A0824
:100E38005904580457040319222F232F262FDD01A4
:100E4800DD0A2B2F631C292F2A2F2B2F232F5D0818
:100E580003192F2F302F612F0130E30700300318BB
:100E68000130E407003003180130E50700300318AB
:100E78000130E607661C412F422F612F6308D70017
:100E88006408D8006508D9006608DA000130DB007C
:100E98005A0DDA0CD90CD80CD70CDB0B4C2F5A088E
:100EA800E6005908E5005808E4005708E300013057
:100EB800E7070318E80A0030E8076808803AFF00E7
:100EC80080307F02031D6A2FFF306702031C6D2FDD
:100ED8006E2F792F7F3083120313E6008030E500F0
:100EE8000030E4000030E300AE2F831203136808DB
:100EF800803AFF0080307F02031D842F0130670293
:100F08000318872F882F942F003083120313E600CD
:100F18000030E5000030E4000030E300DC01AE2FD3
:100F2800831203136708D7005708E200FF30E30570
:100F3800FF30E4057F30E5050030E605621CA52F8B
:100F4800A62FA72FE5176208D7000310570CD80063
:100F58005808E6005C08D7005708E6046608D2007F
:100F68006508D1006408D0006308CF000800831228
:100F78000313280829040319C22FC32FF22FAD0128
:100F8800AD0AD12F01300310A80DA90DFF3E031D96
:100F9800C72F0130AC002C08AD07A91FD42FD52FBF
:100FA800C62F29082B02031DDB2F28082A02031C41
:100FB800DE2FDF2FE52F2808AA022908031CAB0320
:100FC800AB0201300310A90CA80CFF3E031DE62F4D
:100FD8000130AD02031DF12FF22FD52F2B08A900E8
:100FE8002A08A80008000A168A15BA240A128A11C3
:100FF80083160313111508008234003408340310D3
:10100800831603134F0D500DD1005108D700570810
:10101800031D0F28102819280030D0000030CF00F9
:101028000030CE000030CD007E284D08D1004E089B
:10103800D2004F08D3005008D4001F300310D40C3E
:10104800D30CD20CD10CFF3E031D22285108D50029
:101058005508D600CF17FF30CD05FF30CE05FF303D
:10106800CF050030D0059630D702D71F3C283D2841
:1010780057285708803A973E03184328442845289C
:10108800102801300310D00CCF0CCE0CCD0CFF3E35
:10109800031D46280130D1005108D707031D5528E4
:1010A800562845286E2820305702031C5C285D28E6
:1010B800692810280130D1000310CD0DCE0DCF0DB9
:1010C800D00DD10B60280130D7025708031D6D28B9
:1010D8006E285E2856080319722873287E28CD09C1
:1010E800CE09CF09D009CD0A0319CE0A0319CF0AB0
:1010F8000319D00A080083160313270880398312BE
:101108000313E900690883160313AC002708831248
:101118000313E9006907EA006A0883160313B3009A
:10112800A61F9728982899283314330803199D284F
:101138009E28AE28330A031DA228A328AB28003016
:10114800A7000030A6000030A5000030A400A617B4
:10115800A701B6280030A7000030A6000030A5007F
:101168000030A4002308803983120313E9006908BA
:1011780083160313AC06230883120313E9006907D7
:10118800EA006A0883160313B400A21FCC28CD28EE
:10119800CE28341434080319D228D328E328340A73
:1011A800031DD728D828E0280030A3000030A2006B
:1011B8000030A1000030A000A217A301EB280030E6
:1011C800A3000030A2000030A1000030A0002308D6
:1011D800220421042004031DF228F32810290030DA
:1011E800A7000030A6000030A5000030A400803021
:1011F800A6047F30A7042C0883120313E9006908AA
:1012080083160313A7042708A3002608A2002508AD
:10121800A1002408A000E12A3308031D1429152978
:101228001E290030A3000030A2000030A1000030C9
:10123800A000E12A330883120313E900EA016A08CF
:10124800EC00831603133408831203136902EB00BE
:10125800031CEC036B087F3E83160313AD00831257
:1012680003136C080318013E003E83160313AE00F7
:101278002708AB002608AA002508A9002408A8000A
:101288000030A7000030A6000030A5000030A40000
:101298000030B2000030B1000030B0000030AF00C4
:1012A800B401B829340803195A295B298D2901305A
:1012B80083120313E900031083160313A80DA90D65
:1012C800AA0DAB0D83120313E90B5F290130E90066
:1012D800031083160313A40DA50DA60DA70D8312E5
:1012E8000313E90B6C2983160313B21F7C297D298C
:1012F8007E292414013083120313E9000310831696
:101308000313AF0DB00DB10DB20D83120313E90B2A
:1013180082298316031323082B02031D9D29220803
:101328002A02031D9D2921082902031D9D29200841
:101338002802031CA029A129B02932172008A802D5
:101348002108031C210FA9022208031C220FAA024C
:101358002308031C230FAB02013083120313E90097
:10136800690883160313B4071A303402031CBD2915
:10137800BE2956292B082A04290428040319C5293B
:10138800C629F5292F14F529013083120313E90022
:10139800031083160313A40DA50DA60DA70D831224
:1013A8000313E90BCC2983160313B21FDC29DD29AB
:1013B800DE292414013083120313E9000310831675
:1013C8000313AF0DB00DB10DB20D83120313E90B6A
:1013D800E229FF3083160313AD070318AE0AFF3066
:1013E800AE07A61FF829F929C829B401B21FFD299B
:1013F800FE292C2AFF302F0583120313E900FF3042
:1014080083160313300583120313EA00FF30831693
:101418000313310583120313EB007F308316031384
:10142800320583120313EC006C086B046A04690428
:1014380003191F2A202A252A83160313B401B40A84
:101448002C2A83160313241C2A2A2B2A2C2A202A06
:1014580034080319302A312A7E2A0130A4070030C3
:1014680003180130A507003003180130A607003023
:1014780003180130A707271C422A432A7E2A24087A
:1014880083120313E9008316031325088312031339
:10149800EA0083160313260883120313EB0083164E
:1014A8000313270883120313EC000130ED006C0DC1
:1014B800EC0CEB0CEA0CE90CED0B5B2A6C088316C0
:1014C8000313A700831203136B0883160313A600E4
:1014D800831203136A0883160313A50083120313E8
:1014E800690883160313A4000130AD070318AE0A78
:1014F8000030AE072E08803AFF0080307F02031DBF
:10150800872AFF302D02031C8A2A8B2A992AFF304A
:1015180083160313AD000030AE000030A700003082
:10152800A6000030A5000030A400831603132E087F
:10153800803AFF0080307F02031DA42A01302D026B
:101548000318A72AA82AB52A83160313AD01AE01EA
:101558000030A7000030A6000030A5000030A4002D
:10156800AC01831603132D0883120313E9006908DD
:1015780083160313B300331CC22AC32AC52AA6172D
:10158800CD2A7F3083120313E900690883160313F9
:10159800A605330883120313E9000310690CEA0057
:1015A8006A0883160313A7002C0883120313E900A3
:1015B800690883160313A704072908008312031375
:1015C80036088039BB003B08C3003608BB003B0720
:1015D800BC003C08C500B51FF22AF32AF42A4514BA
:1015E80045080319F82AF92A092B450A031DFD2A7B
:1015F800FE2A062B0030B6000030B5000030B400DB
:101608000030B300B517B601112B0030B60000301A
:10161800B5000030B4000030B3003A088039BB0090
:101628003B08C4004408430603191B2B1C2B1D2B25
:1016380043173A08BB003B07BC003C08C400B91F6D
:10164800262B272B282B4414440803192C2B2D2B2D
:101658003D2B440A031D312B322B3A2B0030BA00A4
:101668000030B9000030B8000030B700B917BA012F
:10167800452B0030BA000030B9000030B800003007
:10168800B7004508440203184A2B4B2B8F2B431FE6
:101698004E2B4F2B532B8030BB003B08C30645080D
:1016A800BB003B08C6004408BB003B08C500460811
:1016B800BB003B08C4003308BB003B08C600370822
:1016C800BB003B08B3004608BB003B08B700340822
:1016D800BB003B08C6003808BB003B08B4004608FE
:1016E800BB003B08B8003508BB003B08C6003908FA
:1016F800BB003B08B5004608BB003B08B9003608EC
:10170800BB003B08C6003A08BB003B08B6004608C9
:10171800BB003B08BA00C6014408BB00BC013C083A
:10172800BE0045083B02BD00031CBE033E08803ACC
:10173800FF0080307F02031DA32B1A303D02031CDB
:10174800A62BA72BE42B8312031336083504340485
:101758003304031DB02BB22B0130B32B0030BB0078
:101768003B08C6000030B6000030B5000030B400B9
:101778000030B3004408BB003B08C500EC2B461CF6
:10178800C62BC72BD02B4608BB0003103B0C0138D7
:10179800BC003C08C600D22B0310C60C331CD52B4A
:1017A800D62BD72BC6170130BB00360DB60CB50C9F
:1017B800B40CB30CBB0BD92B0130BB003B08C507DD
:1017C8008312031344084502031CEB2BEC2BC32B99
:1017D800431BEF2BF02B3B2C4508031DF42BF52B5B
:1017E800FE2B0030B6000030B5000030B4000030E9
:1017F800B300692D3708B307380803110318013EF1
:101808000319072CB407390803110318013E0319FB
:101818000E2CB5073A0803110318013E0319152CBD
:10182800B607361C182C192CEF2C461C1C2C1D2C0A
:10183800262C4608BB0003103B0C0138BC003C08B2
:10184800C600282C0310C60C331C2B2C2C2C2D2C3A
:10185800C6170130BB00360DB60CB50CB40CB30C72
:10186800BB0B2F2C0130BB003B08C507EF2C3608FB
:10187800803AFF003A08803A7F02031D4D2C390850
:101888003502031D4D2C38083402031D4D2C370832
:1018980033020318502C512CA92CFF30BB00FF3009
:1018A800BC00FF30BD00FF30BE003708BF0038085D
:1018B800C0003908C1003A08C2003308BF02340822
:1018C800031C340F682C692CC0023508031C350F23
:1018D8006E2C6F2CC1023608031C360F742C752C25
:1018E800C2023F08BB0740080318400F7C2C7D2C20
:1018F800BC0741080318410F822C832CBD074208FE
:101908000318420ABE073E08B6003D08B5003C0869
:10191800B4003B08B3008030BB003B08C306C609CF
:10192800C60A4608031D992C9A2CB72C0130B30718
:10193800003003180130B407003003180130B50730
:10194800003003180130B607B72C3708B30238083F
:10195800031C380FB4023908031C390FB5023A08C2
:10196800031C3A0FB6023608350434043304031D49
:10197800BE2CBF2CEB2C4608031DC32CC42CEB2C0F
:101988000030B6000030B5000030B4000030B300BD
:10199800692D0130BB000310B30DB40DB50DB60DA4
:1019A800BB0BCF2CC61FD92CDA2CDB2C3314461CCE
:1019B800DE2CDF2CE22C0314C60DE42C0310C60D1C
:1019C80045080319E82CE92CEB2C0130C502B51F9A
:1019D800EE2CEF2CCD2CC401C61FF32CF42C022DB9
:1019E80046087F390319F92CFA2CFD2CC401C40AC6
:1019F800022D331C002D012D022DFA2C4408031949
:101A0800062D072D3B2D0130B30700300318013098
:101A1800B407003003180130B5070030031801304F
:101A2800B607361C182D192D3B2D3308BB0034087A
:101A3800BC003508BD003608BE000130BF003E0DB1
:101A4800BE0CBD0CBC0CBB0CBF0B232D3E08B60056
:101A58003D08B5003C08B4003B08B300450A03192B
:101A6800362D372D3B2D0130BB003B08C507450AF5
:101A780003193F2D402D452D4508031D442D452DA7
:101A8800532D0030B6000030B5000030B4000030EF
:101A9800B3004508031D512D522D532DC301451C7C
:101AA800562D572D592DB5175D2D7F30BB003B089E
:101AB800B5054508BB0003103B0CBC003C08B6004C
:101AC800C31F672D682D692DB6170800433083168C
:101AD8000317CD009530CC001330CB003330CA004B
:101AE80000300A168A1553260A128A158312031320
:101AF800200883160313DA008312031321088316C0
:101B08000313DB00DC01DD015D0883120313A80069
:101B1800831603135C0883120313A70083160313A9
:101B28005B0883120313A600831603135A08831253
:101B38000313A50000300A168A112B220A128A15EF
:101B480083120313280883160313EB00831203136D
:101B5800270883160313EA00831203132608831643
:101B68000313E90083120313250883160313E800FF
:101B78003B3083120313D2009F30D100FF30D000D6
:101B8800E530CF00831603136B0883120313D600C6
:101B9800831603136A0883120313D50083160313ED
:101BA800690883120313D400831603136808831289
:101BB8000313D3000A128A115A240A128A158312AF
:101BC8000313520883160313EB00831203135108FF
:101BD80083160313EA0083120313500883160313B2
:101BE800E900831203134F0883160313E8006B08F8
:101BF80083120313CA00831603136A08831203139C
:101C0800C90083160313690883120313C8008316D7
:101C18000313680883120313C7004030CE00A030B6
:101C2800CD000030CC000030CB000A168A1589257B
:101C38000A128A15831203134A088316031797009A
:101C4800831203134908831603179600831203139C
:101C58004808831603179500831203134708831651
:101C680003179400453083160313A300AB30A2007A
:101C7800E030A1000030A000831603171708831670
:101C88000313A70083160317160883160313A60069
:101C980083160317150883160313A5008316031765
:101CA800140883160313A4000A128A157F200A1247
:101CB8008A15831603132308E1002208E00021088F
:101CC800DF002008DE006108A3006008A2005F08AA
:101CD800A1005E08A0006B08A7006A08A6006908B2
:101CE800A5006808A4000A128A157F200A128A151E
:101CF800831603132308831603179B008316031305
:101D08002208831603179A008316031321088316E3
:101D180003179900831603132008831603179800E6
:101D2800453083160313A300B130A200A030A100F0
:101D38000030A000831603171B0883160313A7009F
:101D4800831603171A0883160313A60083160317AE
:101D5800190883160313A50083160317180883169A
:101D68000313A4000A128A157F200A128A15831603
:101D780003132308B8002208B7002108B60020087A
:101D8800B5000A168A110E250A128A15831603133E
:101D9800380883160317D1008316031337088316F0
:101DA8000317D00083160313360883160317CF00D2
:101DB80083160313350883160317CE0051088316BC
:101DC8000313A70083160317500883160313A600EE
:101DD800831603174F0883160313A50083160317EA
:101DE8004E0883160313A4004530A3007730A200E1
:101DF800D030A1000030A0000A128A157F200A12F4
:101E08008A1583160313230883120313BA00831653
:101E18000313220883120313B9008316031321083E
:101E280083120313B80083160313200883120313C5
:101E3800B7003F3083160313A7008030A600003098
:101E4800A5000030A400831603174D08831603135A
:101E5800A300831603174C0883160313A2008316E6
:101E680003174B0883160313A100831603174A08A8
:101E780083160313A0000A128A157F200A128A15F6
:101E880083160313230883120313B6008316031360
:101E9800220883120313B500831603132108831243
:101EA8000313B40083160313200883120313B3002B
:101EB8000A128A15E2220A128A15831203133608B7
:101EC80083160313E10083120313350883160313E3
:101ED800E00083120313340883160313DF00831210
:101EE8000313330883160313DE003F30A700803046
:101EF800A6000030A5000030A4006108A300600817
:101F0800A2005F08A1005E08A0000A128A157F20BF
:101F18000A128A15831603132308D0002208CF005B
:101F28002108CE002008CD000A128A1503200A12C3
:101F38008A15831603134E08E7004D08E600660865
:101F480083120313A5008316031367088312031370
:101F5800A6000030A61BFF30A700A80001300A1613
:101F68008A112B220A128A15831203132808BA0031
:101F78002708B9002608B8002508B700C330B600FE
:101F88008830B5009330B4003330B3000A128A1594
:101F9800E2220A128A1583120313360883160313E2
:101FA800D00083120313350883160313CF0083125E
:101FB8000313340883160313CE0083120313330864
:101FC80083160313CD000A128A1503200A128A15F4
:101FD800831603134E08E7004D08E60052308316B7
:101FE8000313DA00DA0BF62F0000831603136708D1
:101FF800D9006608D8000800FF1B0A2883137F1839
:1020080083170008840A0319FF0A080010308A00A1
:102018000408840A82070034013400340A34003486
:1020280064340034E834033410342734C4340934B5
:10203800003400340034003400340034C434FF3435
:102048007F343F348034EF34FF34BE349034E1348D
:10205800A9343E34EC3482347634BE348234AD3420
:102068002B343E340E343C34C334BD348734D1343D
:1020780013343D3441347834D334BB3420342034E1
:1020880042344D345734203441344C3420344D34A8
:1020980041345234573441340034203420343034FD
:1020A80037343734313430343834353434343234E6
:1020B8003234323400342034203420342034203474
:1020C800463461346E342034543465347334743493
:1020D800003457346934723465342034203443343E
:1020E80075347434203421342134003420342034BD
:1020F800203420342034463461346E3420344F3454
:102108006B340034543465346D34703420344934BD
:10211800733420343A3420340034463461346E3415
:10212800533470346534653464343A3400342534B7
:102138003334643420344334003425343334643441
:06214800003425340034D0
:1021500083120313A601A701200821040319B12843
:10216000B228E928A501A50AC02801300310A00D56
:10217000A10DFF3E031DB6280130A4002408A507C9
:10218000A11FC328C428B52801300310A60DA70D30
:10219000FF3E031DC52821082302031DD128200866
:1021A0002202031CD428D528DC282008A2022108FA
:1021B000031CA303A302261401300310A10CA00CDE
:1021C000FF3E031DDD280130A502031DE828E92894
:1021D000C4282708A1002608A000080083120313C2
:1021E000A8002808A6002608EF0000300A168A1565
:1021F0002C250A168A114E3083120313A700EA30E9
:10220000A600A60B0129A70B0129000003300A161E
:102210008A150E250A168A110D3083120313A700A2
:10222000FB30A600A60B1229A70B122903300A16B1
:102230008A150E250A168A110D3083120313A70082
:10224000FB30A600A60B2229A70B222903300A1671
:102250008A150E250A168A110D3083120313A70062
:10226000FB30A600A60B3229A70B322902300A1632
:102270008A150E250A168A110D3083120313A70042
:10228000FB30A600A60B4229A70B422928300A16CC
:102290008A150E250A168A11823083120313A700AD
:1022A000DD30A600A60B5229A70B52290C300A16C6
:1022B0008A150E250A168A11823083120313A7008D
:1022C000DD30A600A60B6229A70B622901300A1691
:1022D0008A150E250A168A11823083120313A7006D
:1022E000DD30A600A60B7229A70B722906300A164C
:1022F0008A150E250A168A11823083120313A7004D
:10230000DD30A600A60B8229A70B82290800003029
:10231000831203132005A80000302105A900803096
:102320002205AA007F302305AB002B082A042904CC
:102330002804031D9C299D29A5290030A3000030F5
:10234000A2000030A1000030A00000302405A80049
:1023500000302505A90080302605AA007F3027051A
:10236000AB002B082A0429042804031DB829B92925
:10237000C1290030A7000030A6000030A5000030C1
:10238000A400A31FC429C529E9290030A8000030F2
:10239000A9000030AA008030AB002008A802210864
:1023A000031C210FD429D529A9022208031C220FBE
:1023B000DA29DB29AA022308031C230FE029E129DB
:1023C000AB022B08A3002A08A2002908A1002808B4
:1023D000A000A71FEC29ED29112A0030A800003029
:1023E000A9000030AA008030AB002408A80225080C
:1023F000031C250FFC29FD29A9022608031C260F12
:10240000022A032AAA022708031C270F082A092ADE
:10241000AB022B08A7002A08A6002908A500280857
:10242000A4008030A3068030A70627082302031DDE
:10243000232A26082202031D232A25082102031D20
:10244000232A240820020318262A272A292A0310CF
:102450002A2A0314080083120313AD002D08031960
:10246000322A332A472AA81F362A372A472A25091B
:10247000AF002609B0002709B1002809B200AF0A51
:102480000319B00A0319B10A0319B20A4F2A28081E
:10249000B2002708B1002608B0002508AF002808C0
:1024A000270426042504031D562A572A602A0030D3
:1024B000A8000030A7000030A6000030A500E62AE2
:1024C0009630A9002908AE00722A0130A900290817
:1024D000AE0701300310B20CB10CB00CAF0CFF3ED4
:1024E000031D6A2AFE303205031D772A782A652AE1
:1024F000942A0130A9002908AE070130AF07003047
:1025000003180130B007003003180130B107003064
:1025100003180130B20701300310B20CB10CB00C3B
:10252000AF0CFF3E031D8C2AFF303205031D992A94
:102530009A2A792AA62A0130AE020130A900031096
:10254000AF0DB00DB10DB20DA90B9F2AB11BA92A79
:10255000AA2AB02A02302E020318AF2AB02A9B2AD8
:102560002E18B32AB42ABC2AFF30AF05FF30B005BD
:102570007F30B105FF30B2050310AE0C2E08A90064
:10258000AA01AB01AC0118300310A90DAA0DAB0DC7
:10259000AC0DFF3E031DC42A2908AF042A08B0046D
:1025A0002B08B1042C08B2042D080319D82AD92A03
:1025B000DE2AA81FDC2ADD2ADE2AB2173208A8008C
:1025C0003108A7003008A6002F08A50008008316D0
:1025D0000313250883120313E90001300310E90DEA
:1025E000FF3E031DEE2A0310690D83160313240713
:1025F00084000A168A110A200A168A11831203130C
:10260000EA000A168A110A200A168A11EB000A1635
:102610008A110A200A168A11EC000A168A110A2069
:102620000A168A11ED006D0883160313AA0083129F
:1026300003136C0883160313A900831203136B089A
:1026400083160313A800831203136A088316031367
:10265000A700BE2BFF30A5070318A60AFF30A60768
:10266000250883120313E90001300310E90DFF3E32
:10267000031D352B0310690D8316031324078400F3
:102680000A168A110A200A168A1183120313EA0015
:102690000A168A110A200A168A11EB000A168A11F4
:1026A0000A200A168A11EC000A168A110A200A1654
:1026B0008A11ED006D08B6006C08B5006B08B40017
:1026C0006A08B300831603132A0883120313D20087
:1026D00083160313290883120313D10083160313EF
:1026E000280883120313D0008316031327088312CC
:1026F0000313CF0083160313230883120313D6009A
:1027000083160313220883120313D50083160313C1
:10271000210883120313D4008316031320088312A5
:102720000313D3000A128A115A240A168A1183123B
:1027300003135208BA005108B9005008B8004F08F6
:10274000B7000A128A15E2220A168A1183120313AD
:10275000360883160313AA00831203133508831661
:102760000313A90083120313340883160313A8006C
:1027700083120313330883160313A70025082604C6
:10278000031DC32BC42B2A2B2A08A3002908A2004F
:102790002808A1002708A0000800831603133C089E
:1027A00083120313CA00831603133B088312031317
:1027B000C900831603133A0883120313C800831653
:1027C0000313390883120313C70083160313400849
:1027D00083120313CE00831603133F0883120313DF
:1027E000CD00831603133E0883120313CC00831617
:1027F00003133D0883120313CB000A168A1589259B
:102800000A168A11831203134A0883160313A300BE
:1028100083120313490883160313A20083120313C0
:10282000480883160313A100831203134708831675
:102830000313A000440883120313CA008316031372
:10284000430883120313C90083160313420883123B
:102850000313C80083160313410883120313C70030
:1028600083160313480883120313CE008316031341
:10287000470883120313CD008316031346088312FF
:102880000313CC0083160313450883120313CB00F4
:102890000A168A1589250A168A11831203134A0813
:1028A000D2004908D1004808D0004708CF0083165D
:1028B00003133C0883120313CA00831603133B0857
:1028C00083120313C900831603133A0883120313F8
:1028D000C80083160313390883120313C700831635
:1028E0000313380883120313CE008316031337082B
:1028F00083120313CD0083160313360883120313C8
:10290000CC0083160313350883120313CB000A1679
:102910008A1589250A168A11831203134A08D600DC
:102920004908D5004808D4004708D3000A128A1184
:102930005A240A168A1183120313520883160313AA
:10294000A70083120313510883160313A6008312F2
:102950000313500883160313A500831203134F08B3
:1029600083160313A4000A128A157F200A168A11FF
:10297000831603132308CC002208CB002108CA00C9
:102980002008C900440883120313B60083160313FA
:10299000430883120313B5008316031342088312FE
:1029A0000313B40083160313410883120313B30007
:1029B000831603134C0883120313BA008316031300
:1029C0004B0883120313B900831603134A088312BA
:1029D0000313B80083160313490883120313B700C7
:1029E0000A128A15E2220A168A1183120313360884
:1029F00083160313B80083120313350883160313D9
:102A0000B70083120313340883160313B60083122E
:102A10000313330883160313B5000800831603134A
:102A2000380883120313A300831603133708831295
:102A30000313A20083160313360883120313A100A5
:102A400083160313350883120313A0000030A70078
:102A50000030A6000030A5000030A4000A168A113C
:102A600087210A168A110318362D372D482D21305B
:102A700083160317A0000030A10000308316031353
:102A8000B8000030B7000030B6000030B5007F2E2F
:102A900083160313380883120313A300831603134A
:102AA000370883120313A200831603133608831218
:102AB0000313A10083160313350883120313A00028
:102AC0000030A7000030A6000030A5000030A400B0
:102AD0000A168A15CC260A168A11031C702D712D30
:102AE000822D223083160317A0000030A100003091
:102AF00083160313B8000030B7000030B600003072
:102B0000B5007F2EBF3083120313B6008030B500AE
:102B10000030B4000030B3004030D2000030D100AB
:102B20000030D0000030CF00B930EE006E08B000A9
:102B300083160313380883120313AF00831603139D
:102B4000370883120313AE0083160313360883126B
:102B50000313AD0083160313350883120313AC006F
:102B60000A168A151C270A168A11831203132F08C6
:102B7000D6002E08D5002D08D4002C08D3000A1248
:102B80008A115A240A168A11831203135208BA00B2
:102B90005108B9005008B8004F08B7000A128A154A
:102BA000E2220A168A1183120313360883160313CE
:102BB000B80083120313350883160313B70083127A
:102BC0000313340883160313B60083120313330868
:102BD00083160313B500FF30B9070318BA0AFF3094
:102BE000BA073808A3003708A2003608A100350844
:102BF000A0000F3083120313EE006E088316031338
:102C0000A4000830A5000030A6000A168A11E722A9
:102C10000A168A11831603132308B8002208B70086
:102C20002108B6002008B500380883120313B60047
:102C300083160313370883120313B5008316031397
:102C4000360883120313B400831603133508831266
:102C50000313B3003F30D2003130D1007230D000C6
:102C60001830CF0083160313390883120313A5000D
:102C7000831603133A0883120313A6000030A61B21
:102C8000FF30A700A80001300A168A112B220A166D
:102C90008A11831203132808D6002708D5002608B6
:102CA000D4002508D3000A128A115A240A168A1160
:102CB000831203135208BA005108B9005008B80033
:102CC0004F08B7000A128A15E2220A168A118312E7
:102CD0000313360883160313B80083120313350851
:102CE00083160313B70083120313340883160313E8
:102CF000B60083120313330883160313B5000800CC
:102D000083120313B9002F30B1003108B400E92F4A
:102D100025303C0603198D2E8E2E9A2E3C08B100CC
:102D2000390884003108831780000130B100310870
:102D3000B907E92FBA01BB01B6012E0884000A16B3
:102D40008A110A200A168A110A168A15FA240A1606
:102D50008A11031CAC2EAD2EED2E83120313BA0183
:102D6000BB010A3083120313A0000030A1003B080E
:102D7000A3003A08A2000A168A15D3250A168A115A
:102D8000831203132108BB002008BA002E08840018
:102D90000A168A110A200A168A11D03EB100FF30A5
:102DA00003180030B2003108BA070318BB0A320812
:102DB000BB070130B1003108AE072E0884000A16A7
:102DC0008A110A200A168A110A168A15FA240A1686
:102DD0008A110318EC2EED2EB12E0130831203134D
:102DE000AE07FF302E0784000A168A110A200A1641
:102DF0008A11BC00003A0319FB2F643A0319042F0F
:102E00000D3A0319042FE92F3408840083130008B6
:102E1000B700840A0008B8000230B1003108B407D6
:102E2000B81F132F142F1D2F0330B1003108B60423
:102E3000B709B809B70A0319B80ABC01BC0A3C08AB
:102E4000B1003107013E84000A168A110A200A16D1
:102E50008A11B2000A168A110A200A168A11B300D2
:102E600033083802031D362F320837020318392F72
:102E70003A2F3B2F452F0130B1003108BC070530F8
:102E80003C06031D442F452F1F2F3A083B0403190E
:102E90004A2F4B2F572F360803390319502F512F24
:102EA000572FFF30BA070318BB0AFF30BB073B0898
:102EB000803A803C031D5E2F3A083C020318612FC4
:102EC000622F6E2F831203133C08B100B201310848
:102ED000BA023208031CBB03BB02722F8312031316
:102EE000BA01BB013A083B040319772F782F8F2FC3
:102EF0002030B10039088400310883178000013088
:102F0000B1003108B907FF30BA070318BB0AFF3018
:102F1000BB073A083B04031D8E2F8F2F782F3608EE
:102F200003390319942F952FA02F2D30B1003908A4
:102F300084003108831780000130B1003108B907DF
:102F40003C08B1003108B500E02F0A30A80000307D
:102F5000A9003508B1003107013E84000A168A1124
:102F60000A200A168A11A0000A168A110A200A16D7
:102F70008A11A1003808A3003708A2000A168A1196
:102F8000A8200A168A11831203132108AB00200817
:102F9000AA000A128A11BB270A168A118312031388
:102FA0002808303EB2003208BC003C08B1003908A5
:102FB00084003108831780000130B1003108B9075F
:102FC000FF30B1003108B507350A031DE82FE92F9E
:102FD000A52F0130AE07FF302E0784000A168A1194
:102FE0000A200A168A11B1003108BC003C08031DF2
:102FF000FA2FFB2F882E39088400831780010800E0
:10391200823400340034003482340034823400347F
:103922004B34003464008001840A04060319003415
:103932000406942C4130831203139F0080308316B7
:1039420003139F0008000A168A15BA240A168A155C
:1039520083160313111408002830831203139400F2
:1039620083160313910194011330930087150716F0
:103972000800831603131419BF2CC02CBA2C11088B
:103982001F39031DC52CC62CBA2C080001300A169B
:103992008A150E250A168A15193083120313A600FA
:1039A200A60BD12CD42C080083120313A0000A16F4
:1039B2008A15BA240A168A15831203132008930063
:1039C2008C1DE42CE52CE12C8C1108007E088A0069
:1039D2007F0882000A168A15E7240A168A158000D3
:1039E200840A04087D0603190034FF0A0319FE0A3B
:1039F200EB2C83120313A100A0013A302102031819
:103A0200032D042D0C2D30302102031C092D0A2D0B
:103A12000C2DA001A00A200C080083120313A5009C
:103A2200F8012508F0390A168A154B250A168A1557
:103A3200831203132508A40003300310A40DFF3ED4
:103A4200031D1E2D0310240DF0390A168A154B256D
:103A52000A168A15080083120313A1000A168A1592
:103A6200A4240A168A15831203136F080A168A15EC
:103A7200D5240A168A158312031321087B040A1619
:103A82008A15D5240A168A150A128A11F7270A16E8
:103A92008A15080083120313A3007808A2002208E3
:103AA200A304230804380A168A152C250A168A1537
:103AB200831203132308FB390A168A152C250A16CA
:103AC2008A15203083120313A200A20B662D000078
:103AD200080083120313A500F801F80A2508F0393B
:103AE2000A168A154B250A168A158312031325080E
:103AF200A40003300310A40DFF3E031D7B2D031011
:103B0200240DF0390A168A154B250A168A15080063
:103B1200803083120313CA064E08B6004D08B50062
:103B22004C08B4004B08B3004A08BA004908B9006F
:103B32004808B8004708B7000A128A15E2220A1696
:103B42008A15831203133608CA003508C9003408DF
:103B5200C8003308C700080000300A168A15532629
:103B62000A168A1583120313210883160317A90064
:103B720083120313200883160317A80052308312FE
:103B82000313A700A70BC32D0000831603172908F0
:103B920083120313A6008316031728088312031344
:103BA200A500080083120313A401A501201CDA2D2D
:103BB200DB2DE12D2208A4070318A50A2308A50777
:103BC20001300310A20DA30DFF3E031DE22D0130B3
:103BD2000310A10CA00CFF3E031DE92D20082104B7
:103BE200031DF42DF52DD72D2508A1002408A000D2
:103BF200080083120313A800A401A5012008A20053
:103C0200A3012208A6002308A700281C092E0A2EB9
:103C1200102E2608A4070318A50A2708A5070130B5
:103C22000310A60DA70DFF3E031D112E0310A80CB5
:103C32002808031D1D2E1E2E062E2508A10024086D
:103C4200A000080083120313A700472E2608BF3ED8
:103C52000A168A150E250A168A15522E2608933E32
:103C62000A168A150E250A168A15522E2608D33EE2
:103C72000A168A150E250A168A15522E26087F3E26
:103C82000A168A150E250A168A15522E2708023A96
:103C92000319272E013A03192F2E073A0319372E3B
:103CA2003F2E080083120313A40008302402031CD1
:103CB2005B2E5C2E5F2EA001A101852E0130A20099
:103CC20022089F052408A20002300310A20DFF3E25
:103CD200031D662E0310220DA30023089F04133038
:103CE20083120313A200A20B742E831203139F14D8
:103CF2009F187C2E7D2E792E1E08A1008316031399
:103D02001E0883120313A000080083120313AB01E1
:103D1200AC01AF2E2B082607A9002708A80003181C
:103D2200A80AAB1F952EA803831203132808AA0022
:103D32002A08FF00290884000A168A1100200A16A0
:103D42008A150A168A156A250A168A1501308312FF
:103D52000313AB070318AC0A0030AC072B08260785
:103D6200A9002708A8000318A80AAB1FB92EA803A8
:103D7200831203132808AA002A08FF0029088400D6
:103D82000A168A1100200A168A15003A031DCA2E45
:103D9200CB2E8B2E08000030831203132005A800BF
:103DA20000302105A90080302205AA007F302305BA
:103DB200AB002B082A0429042804031DE12EE22E5D
:103DC200EA2E0030A3000030A2000030A100003033
:103DD200A00000302405A80000302505A90080308D
:103DE2002605AA007F302705AB002B082A042904E8
:103DF2002804031DFD2EFE2E062F0030A7000030E2
:103E0200A6000030A5000030A40027082306031DE9
:103E1200142F26082206031D142F25082106031D30
:103E2200142F240820060319172F182F1A2F0310F6
:103E32001B2F03140800831203132F08A3002E085C
:103E4200A2002D08A1002C08A0000030A70000301D
:103E5200A6000030A5000030A4000A168A15CC2660
:103E62000A168A15031C362F372F482F8312031385
:103E72003008840083138001840A80010030AF007F
:103E82000030AE000030AD000030AC00772F83125E
:103E920003132F087F39B100B2010310B10DB20D27
:103EA20030088400310883138000840A32088000BD
:103EB2002E0D2E0D0139B100B201300884003108F7
:103EC2008004840A3208800430088400823080072B
:103ED200840F00080318000AFF00FF307F078000EC
:103EE20084032F0880393F38AF00AE1308008312D5
:103EF20003130C1D7D2F7E2FF92F831603136F08DA
:103F0200031D912F6E08031D912F09306D02031DB1
:103F12008E2FC5306C02031D8E2F0318912F922F06
:103F2200DB2F83120313071D972F982FC22F071120
:103F3200C430F0000930F1000030F2000030F3002C
:103F4200831603136C08F0026D08031C6D0FAA2F71
:103F5200AB2FF1026E08031C6E0FB02FB12FF202CD
:103F62006F08031C6F0FB62FB72FF3027308831667
:103F72000317930072089200710891007008900074
:103F8200DB2F0715831603136F088316031793009D
:103F9200831603136E088316031792008316031306
:103FA2006D08831603179100831603136C0883169A
:103FB20003179000831603171008F0001108F10090
:103FC2001208F2001308F30008300310F30CF20C8D
:103FD200F10CF00CFF3E031DE62F70088312031351
:103FE20096008316031710088312031395000C1111
:0E3FF20075088A00740E8300FE0E7E0E090014
:04400E00322CFF3F12
:00000001FF
